{
  "contractName": "ERC165",
  "abi": [
    {
      "inputs": [],
      "stateMutability": "nonpayable",
      "type": "constructor"
    },
    {
      "inputs": [
        {
          "internalType": "bytes4",
          "name": "",
          "type": "bytes4"
        }
      ],
      "name": "_supportedInterfaces",
      "outputs": [
        {
          "internalType": "bool",
          "name": "",
          "type": "bool"
        }
      ],
      "stateMutability": "view",
      "type": "function"
    },
    {
      "inputs": [
        {
          "internalType": "bytes4",
          "name": "interfaceID",
          "type": "bytes4"
        }
      ],
      "name": "supportsInterface",
      "outputs": [
        {
          "internalType": "bool",
          "name": "",
          "type": "bool"
        }
      ],
      "stateMutability": "view",
      "type": "function"
    }
  ],
  "bytecode": "0x608060405234801561001057600080fd5b506100407f01ffc9a7a5cef8baa21ed3c5c0d7e23accb804b619e9333b597f47a0d84076e261004560201b60201c565b610196565b63ffffffff60e01b817bffffffffffffffffffffffffffffffffffffffffffffffffffffffff1916146100ad576040517f08c379a00000000000000000000000000000000000000000000000000000000081526004016100a490610176565b60405180910390fd5b6001600080837bffffffffffffffffffffffffffffffffffffffffffffffffffffffff19167bffffffffffffffffffffffffffffffffffffffffffffffffffffffff1916815260200190815260200160002060006101000a81548160ff02191690831515021790555050565b600082825260208201905092915050565b7f4e6f7420612076616c69642045524331363520696e7465726661636500000000600082015250565b6000610160601c83610119565b915061016b8261012a565b602082019050919050565b6000602082019050818103600083015261018f81610153565b9050919050565b610218806101a56000396000f3fe608060405234801561001057600080fd5b50600436106100365760003560e01c806301ffc9a71461003b578063ef1944351461006b575b600080fd5b6100556004803603810190610050919061017f565b61009b565b60405161006291906101c7565b60405180910390f35b6100856004803603810190610080919061017f565b610102565b60405161009291906101c7565b60405180910390f35b6000806000837bffffffffffffffffffffffffffffffffffffffffffffffffffffffff19167bffffffffffffffffffffffffffffffffffffffffffffffffffffffff1916815260200190815260200160002060009054906101000a900460ff169050919050565b60006020528060005260406000206000915054906101000a900460ff1681565b600080fd5b60007fffffffff0000000000000000000000000000000000000000000000000000000082169050919050565b61015c81610127565b811461016757600080fd5b50565b60008135905061017981610153565b92915050565b60006020828403121561019557610194610122565b5b60006101a38482850161016a565b91505092915050565b60008115159050919050565b6101c1816101ac565b82525050565b60006020820190506101dc60008301846101b8565b9291505056fea2646970667358221220b5db6c9047279771751b47d019797bdaf48f5cd22e0b91b4032ee061a059bca864736f6c63430008100033",
  "immutableReferences": {},
  "source": "//SPDX-License-Identifier: MIT\r\npragma solidity ^0.8.0;\r\nimport '../interfaces/IERC165.sol';\r\n\r\ncontract ERC165 is IERC165 {\r\n    mapping(bytes4 => bool) public _supportedInterfaces;\r\n    constructor()  {\r\n        _registedInterface(bytes4(keccak256('supportsInterface(bytes4)')));\r\n    }\r\n    function supportsInterface(bytes4 interfaceID) external override view returns (bool) {\r\n        return _supportedInterfaces[interfaceID];\r\n    }\r\n    function _registedInterface(bytes4 interfaceId) internal {\r\n        require(interfaceId == 0xffffffff, \"Not a valid ERC165 interface\");\r\n        _supportedInterfaces[interfaceId] = true;\r\n    } \r\n}",
  "sourcePath": "D:\\BlockChain\\nft-marketplace-starter-kit\\contracts\\libraries\\ERC165.sol",
  "compiler": {
    "name": "solc",
    "version": "0.8.16+commit.07a7930e.Emscripten.clang"
  },
  "schemaVersion": "3.4.9",
  "updatedAt": "2022-08-18T13:30:09.738Z",
  "devdoc": {
    "kind": "dev",
    "methods": {},
    "version": 1
  },
  "userdoc": {
    "kind": "user",
    "methods": {},
    "version": 1
  }
}