{
  "contractName": "ERC721Connector",
  "abi": [
    {
      "inputs": [
        {
          "internalType": "string",
          "name": "name",
          "type": "string"
        },
        {
          "internalType": "string",
          "name": "symbol",
          "type": "string"
        }
      ],
      "stateMutability": "nonpayable",
      "type": "constructor"
    },
    {
      "anonymous": false,
      "inputs": [
        {
          "indexed": true,
          "internalType": "address",
          "name": "_owner",
          "type": "address"
        },
        {
          "indexed": true,
          "internalType": "address",
          "name": "_approved",
          "type": "address"
        },
        {
          "indexed": true,
          "internalType": "uint256",
          "name": "_tokenId",
          "type": "uint256"
        }
      ],
      "name": "Approval",
      "type": "event"
    },
    {
      "anonymous": false,
      "inputs": [
        {
          "indexed": true,
          "internalType": "address",
          "name": "_from",
          "type": "address"
        },
        {
          "indexed": true,
          "internalType": "address",
          "name": "_to",
          "type": "address"
        },
        {
          "indexed": true,
          "internalType": "uint256",
          "name": "_tokenId",
          "type": "uint256"
        }
      ],
      "name": "Transfer",
      "type": "event"
    },
    {
      "anonymous": false,
      "inputs": [
        {
          "indexed": true,
          "internalType": "address",
          "name": "owner",
          "type": "address"
        },
        {
          "indexed": true,
          "internalType": "address",
          "name": "approved",
          "type": "address"
        },
        {
          "indexed": true,
          "internalType": "uint256",
          "name": "tokenId",
          "type": "uint256"
        }
      ],
      "name": "approval",
      "type": "event"
    },
    {
      "anonymous": false,
      "inputs": [
        {
          "indexed": true,
          "internalType": "address",
          "name": "to",
          "type": "address"
        },
        {
          "indexed": true,
          "internalType": "address",
          "name": "from",
          "type": "address"
        },
        {
          "indexed": true,
          "internalType": "uint256",
          "name": "id",
          "type": "uint256"
        }
      ],
      "name": "transfer",
      "type": "event"
    },
    {
      "inputs": [
        {
          "internalType": "address",
          "name": "_to",
          "type": "address"
        },
        {
          "internalType": "uint256",
          "name": "tokenId",
          "type": "uint256"
        }
      ],
      "name": "Approve",
      "outputs": [],
      "stateMutability": "nonpayable",
      "type": "function"
    },
    {
      "inputs": [
        {
          "internalType": "bytes4",
          "name": "",
          "type": "bytes4"
        }
      ],
      "name": "_supportedInterfaces",
      "outputs": [
        {
          "internalType": "bool",
          "name": "",
          "type": "bool"
        }
      ],
      "stateMutability": "view",
      "type": "function"
    },
    {
      "inputs": [
        {
          "internalType": "address",
          "name": "_owner",
          "type": "address"
        }
      ],
      "name": "balanceOf",
      "outputs": [
        {
          "internalType": "uint256",
          "name": "balance",
          "type": "uint256"
        }
      ],
      "stateMutability": "view",
      "type": "function"
    },
    {
      "inputs": [],
      "name": "name",
      "outputs": [
        {
          "internalType": "string",
          "name": "",
          "type": "string"
        }
      ],
      "stateMutability": "view",
      "type": "function"
    },
    {
      "inputs": [
        {
          "internalType": "uint256",
          "name": "_tokenId",
          "type": "uint256"
        }
      ],
      "name": "ownerOf",
      "outputs": [
        {
          "internalType": "address",
          "name": "owner",
          "type": "address"
        }
      ],
      "stateMutability": "view",
      "type": "function"
    },
    {
      "inputs": [
        {
          "internalType": "bytes4",
          "name": "interfaceID",
          "type": "bytes4"
        }
      ],
      "name": "supportsInterface",
      "outputs": [
        {
          "internalType": "bool",
          "name": "",
          "type": "bool"
        }
      ],
      "stateMutability": "view",
      "type": "function"
    },
    {
      "inputs": [],
      "name": "symbol",
      "outputs": [
        {
          "internalType": "string",
          "name": "",
          "type": "string"
        }
      ],
      "stateMutability": "view",
      "type": "function"
    },
    {
      "inputs": [
        {
          "internalType": "uint256",
          "name": "index",
          "type": "uint256"
        }
      ],
      "name": "tokenByIndex",
      "outputs": [
        {
          "internalType": "uint256",
          "name": "",
          "type": "uint256"
        }
      ],
      "stateMutability": "view",
      "type": "function"
    },
    {
      "inputs": [
        {
          "internalType": "address",
          "name": "owner",
          "type": "address"
        },
        {
          "internalType": "uint256",
          "name": "index",
          "type": "uint256"
        }
      ],
      "name": "tokenOfOwnerByIndex",
      "outputs": [
        {
          "internalType": "uint256",
          "name": "",
          "type": "uint256"
        }
      ],
      "stateMutability": "view",
      "type": "function"
    },
    {
      "inputs": [],
      "name": "totalSupply",
      "outputs": [
        {
          "internalType": "uint256",
          "name": "",
          "type": "uint256"
        }
      ],
      "stateMutability": "view",
      "type": "function"
    },
    {
      "inputs": [
        {
          "internalType": "address",
          "name": "_from",
          "type": "address"
        },
        {
          "internalType": "address",
          "name": "_to",
          "type": "address"
        },
        {
          "internalType": "uint256",
          "name": "_tokenId",
          "type": "uint256"
        }
      ],
      "name": "transferFrom",
      "outputs": [],
      "stateMutability": "nonpayable",
      "type": "function"
    }
  ],
  "bytecode": "0x60806040523480156200001157600080fd5b5060405162001b4b38038062001b4b8339818101604052810190620000379190620003ec565b81816200006a7f01ffc9a7a5cef8baa21ed3c5c0d7e23accb804b619e9333b597f47a0d84076e26200018260201b60201c565b620000bd7f13b182f4c0e5b2efbac0efe6cf6d756c8b89f4b79c5707a043ed9ea740574ee97f7feaf19471f34a12a7eaf32d5f3090aa2260ea8624dc8a138e74e0bf0f623076186200018260201b60201c565b8160019081620000ce9190620006bc565b508060029081620000e09190620006bc565b5050506200017a7f3451e33ffec4a01fb0a4afc856838a4cbfc411f4a044d557b9a2cf6bdee26a197f22c82707ba960a14c7592ffb6b8cfaa073fed0048a84cc7fa41f6b5bd8e7f2e47f3a6eb71757dfc6e784c1459d26270140c2c147d95ca985c80026fc5301c3eca17f8a7e378434598edc36d108689a030cbc9d7d465de4f74c71bae1028eed6a881b1818186200018260201b60201c565b505062000826565b63ffffffff60e01b817bffffffffffffffffffffffffffffffffffffffffffffffffffffffff191614620001ed576040517f08c379a0000000000000000000000000000000000000000000000000000000008152600401620001e49062000804565b60405180910390fd5b6001600080837bffffffffffffffffffffffffffffffffffffffffffffffffffffffff19167bffffffffffffffffffffffffffffffffffffffffffffffffffffffff1916815260200190815260200160002060006101000a81548160ff02191690831515021790555050565b6000604051905090565b600080fd5b600080fd5b600080fd5b600080fd5b6000601f19601f8301169050919050565b7f4e487b7100000000000000000000000000000000000000000000000000000000600052604160045260246000fd5b620002c28262000277565b810181811067ffffffffffffffff82111715620002e457620002e362000288565b5b80604052505050565b6000620002f962000259565b9050620003078282620002b7565b919050565b600067ffffffffffffffff8211156200032a576200032962000288565b5b620003358262000277565b9050602081019050919050565b60005b838110156200036257808201518184015260208101905062000345565b60008484015250505050565b6000620003856200037f846200030c565b620002ed565b905082815260208101848484011115620003a457620003a362000272565b5b620003b184828562000342565b509392505050565b600082601f830112620003d157620003d06200026d565b5b8151620003e38482602086016200036e565b91505092915050565b6000806040838503121562000406576200040562000263565b5b600083015167ffffffffffffffff81111562000427576200042662000268565b5b6200043585828601620003b9565b925050602083015167ffffffffffffffff81111562000459576200045862000268565b5b6200046785828601620003b9565b9150509250929050565b600081519050919050565b7f4e487b7100000000000000000000000000000000000000000000000000000000600052602260045260246000fd5b60006002820490506001821680620004c457607f821691505b602082108103620004da57620004d96200047c565b5b50919050565b60008190508160005260206000209050919050565b60006020601f8301049050919050565b600082821b905092915050565b600060088302620005447fffffffffffffffffffffffffffffffffffffffffffffffffffffffffffffffff8262000505565b62000550868362000505565b95508019841693508086168417925050509392505050565b6000819050919050565b6000819050919050565b60006200059d62000597620005918462000568565b62000572565b62000568565b9050919050565b6000819050919050565b620005b9836200057c565b620005d1620005c882620005a4565b84845462000512565b825550505050565b600090565b620005e8620005d9565b620005f5818484620005ae565b505050565b5b818110156200061d5762000611600082620005de565b600181019050620005fb565b5050565b601f8211156200066c576200063681620004e0565b6200064184620004f5565b8101602085101562000651578190505b620006696200066085620004f5565b830182620005fa565b50505b505050565b600082821c905092915050565b6000620006916000198460080262000671565b1980831691505092915050565b6000620006ac83836200067e565b9150826002028217905092915050565b620006c78262000471565b67ffffffffffffffff811115620006e357620006e262000288565b5b620006ef8254620004ab565b620006fc82828562000621565b600060209050601f8311600181146200073457600084156200071f578287015190505b6200072b85826200069e565b8655506200079b565b601f1984166200074486620004e0565b60005b828110156200076e5784890151825560018201915060208501945060208101905062000747565b868310156200078e57848901516200078a601f8916826200067e565b8355505b6001600288020188555050505b505050505050565b600082825260208201905092915050565b7f4e6f7420612076616c69642045524331363520696e7465726661636500000000600082015250565b6000620007ec601c83620007a3565b9150620007f982620007b4565b602082019050919050565b600060208201905081810360008301526200081f81620007dd565b9050919050565b61131580620008366000396000f3fe608060405234801561001057600080fd5b50600436106100a95760003560e01c80634f6ccce7116100715780634f6ccce7146101665780636352211e1461019657806370a08231146101c657806390ec57f1146101f657806395d89b4114610212578063ef19443514610230576100a9565b806301ffc9a7146100ae57806306fdde03146100de57806318160ddd146100fc57806323b872dd1461011a5780632f745c5914610136575b600080fd5b6100c860048036038101906100c39190610bb5565b610260565b6040516100d59190610bfd565b60405180910390f35b6100e66102c7565b6040516100f39190610ca8565b60405180910390f35b610104610359565b6040516101119190610ce3565b60405180910390f35b610134600480360381019061012f9190610d88565b610366565b005b610150600480360381019061014b9190610ddb565b6103bf565b60405161015d9190610ce3565b60405180910390f35b610180600480360381019061017b9190610e1b565b61046f565b60405161018d9190610ce3565b60405180910390f35b6101b060048036038101906101ab9190610e1b565b6104e0565b6040516101bd9190610e57565b60405180910390f35b6101e060048036038101906101db9190610e72565b610522565b6040516101ed9190610ce3565b60405180910390f35b610210600480360381019061020b9190610ddb565b6105ec565b005b61021a610787565b6040516102279190610ca8565b60405180910390f35b61024a60048036038101906102459190610bb5565b610819565b6040516102579190610bfd565b60405180910390f35b6000806000837bffffffffffffffffffffffffffffffffffffffffffffffffffffffff19167bffffffffffffffffffffffffffffffffffffffffffffffffffffffff1916815260200190815260200160002060009054906101000a900460ff169050919050565b6060600180546102d690610ece565b80601f016020809104026020016040519081016040528092919081815260200182805461030290610ece565b801561034f5780601f106103245761010080835404028352916020019161034f565b820191906000526020600020905b81548152906001019060200180831161033257829003601f168201915b5050505050905090565b6000600680549050905090565b6103703382610839565b6103af576040517f08c379a00000000000000000000000000000000000000000000000000000000081526004016103a690610f4b565b60405180910390fd5b6103ba8383836108c8565b505050565b60006103ca83610522565b821061040b576040517f08c379a000000000000000000000000000000000000000000000000000000000815260040161040290610fb7565b60405180910390fd5b600860008473ffffffffffffffffffffffffffffffffffffffff1673ffffffffffffffffffffffffffffffffffffffff168152602001908152602001600020828154811061045c5761045b610fd7565b5b9060005260206000200154905092915050565b6000610479610359565b82106104ba576040517f08c379a00000000000000000000000000000000000000000000000000000000081526004016104b190611052565b60405180910390fd5b600682815481106104ce576104cd610fd7565b5b90600052602060002001549050919050565b6000806003600084815260200190815260200160002060009054906101000a900473ffffffffffffffffffffffffffffffffffffffff16905080915050919050565b600080600460008473ffffffffffffffffffffffffffffffffffffffff1673ffffffffffffffffffffffffffffffffffffffff16815260200190815260200160002054036105a5576040517f08c379a000000000000000000000000000000000000000000000000000000000815260040161059c906110be565b60405180910390fd5b600460008373ffffffffffffffffffffffffffffffffffffffff1673ffffffffffffffffffffffffffffffffffffffff168152602001908152602001600020549050919050565b60006105f7826104e0565b90508073ffffffffffffffffffffffffffffffffffffffff168373ffffffffffffffffffffffffffffffffffffffff1603610667576040517f08c379a000000000000000000000000000000000000000000000000000000000815260040161065e90611150565b60405180910390fd5b8073ffffffffffffffffffffffffffffffffffffffff163373ffffffffffffffffffffffffffffffffffffffff16146106d5576040517f08c379a00000000000000000000000000000000000000000000000000000000081526004016106cc90611150565b60405180910390fd5b826005600084815260200190815260200160002060006101000a81548173ffffffffffffffffffffffffffffffffffffffff021916908373ffffffffffffffffffffffffffffffffffffffff160217905550818373ffffffffffffffffffffffffffffffffffffffff168273ffffffffffffffffffffffffffffffffffffffff167f5c52a5f2b86fd16be577188b5a83ef1165faddc00b137b10285f16162e17792a60405160405180910390a4505050565b60606002805461079690610ece565b80601f01602080910402602001604051908101604052809291908181526020018280546107c290610ece565b801561080f5780601f106107e45761010080835404028352916020019161080f565b820191906000526020600020905b8154815290600101906020018083116107f257829003601f168201915b5050505050905090565b60006020528060005260406000206000915054906101000a900460ff1681565b600061084482610ae6565b610883576040517f08c379a000000000000000000000000000000000000000000000000000000000815260040161087a906111bc565b60405180910390fd5b600061088e836104e0565b90508073ffffffffffffffffffffffffffffffffffffffff168473ffffffffffffffffffffffffffffffffffffffff161491505092915050565b6108d181610ae6565b610910576040517f08c379a0000000000000000000000000000000000000000000000000000000008152600401610907906111bc565b60405180910390fd5b8273ffffffffffffffffffffffffffffffffffffffff16610930826104e0565b73ffffffffffffffffffffffffffffffffffffffff1614610986576040517f08c379a000000000000000000000000000000000000000000000000000000000815260040161097d90611228565b60405180910390fd5b6001600460008573ffffffffffffffffffffffffffffffffffffffff1673ffffffffffffffffffffffffffffffffffffffff16815260200190815260200160002060008282546109d69190611277565b925050819055506001600460008473ffffffffffffffffffffffffffffffffffffffff1673ffffffffffffffffffffffffffffffffffffffff1681526020019081526020016000206000828254610a2d91906112ab565b92505081905550816003600083815260200190815260200160002060006101000a81548173ffffffffffffffffffffffffffffffffffffffff021916908373ffffffffffffffffffffffffffffffffffffffff160217905550808273ffffffffffffffffffffffffffffffffffffffff168473ffffffffffffffffffffffffffffffffffffffff167fbeabacc8ffedac16e9a60acdb2ca743d80c2ebb44977a93fa8e483c74d2b35a860405160405180910390a4505050565b6000806003600084815260200190815260200160002060009054906101000a900473ffffffffffffffffffffffffffffffffffffffff169050600073ffffffffffffffffffffffffffffffffffffffff168173ffffffffffffffffffffffffffffffffffffffff161415915050919050565b600080fd5b60007fffffffff0000000000000000000000000000000000000000000000000000000082169050919050565b610b9281610b5d565b8114610b9d57600080fd5b50565b600081359050610baf81610b89565b92915050565b600060208284031215610bcb57610bca610b58565b5b6000610bd984828501610ba0565b91505092915050565b60008115159050919050565b610bf781610be2565b82525050565b6000602082019050610c126000830184610bee565b92915050565b600081519050919050565b600082825260208201905092915050565b60005b83811015610c52578082015181840152602081019050610c37565b60008484015250505050565b6000601f19601f8301169050919050565b6000610c7a82610c18565b610c848185610c23565b9350610c94818560208601610c34565b610c9d81610c5e565b840191505092915050565b60006020820190508181036000830152610cc28184610c6f565b905092915050565b6000819050919050565b610cdd81610cca565b82525050565b6000602082019050610cf86000830184610cd4565b92915050565b600073ffffffffffffffffffffffffffffffffffffffff82169050919050565b6000610d2982610cfe565b9050919050565b610d3981610d1e565b8114610d4457600080fd5b50565b600081359050610d5681610d30565b92915050565b610d6581610cca565b8114610d7057600080fd5b50565b600081359050610d8281610d5c565b92915050565b600080600060608486031215610da157610da0610b58565b5b6000610daf86828701610d47565b9350506020610dc086828701610d47565b9250506040610dd186828701610d73565b9150509250925092565b60008060408385031215610df257610df1610b58565b5b6000610e0085828601610d47565b9250506020610e1185828601610d73565b9150509250929050565b600060208284031215610e3157610e30610b58565b5b6000610e3f84828501610d73565b91505092915050565b610e5181610d1e565b82525050565b6000602082019050610e6c6000830184610e48565b92915050565b600060208284031215610e8857610e87610b58565b5b6000610e9684828501610d47565b91505092915050565b7f4e487b7100000000000000000000000000000000000000000000000000000000600052602260045260246000fd5b60006002820490506001821680610ee657607f821691505b602082108103610ef957610ef8610e9f565b5b50919050565b7f53656e646572206973206e6f7420617070726f766564206f72206f776e657200600082015250565b6000610f35601f83610c23565b9150610f4082610eff565b602082019050919050565b60006020820190508181036000830152610f6481610f28565b9050919050565b7f696e646578206f7574206f662072616e67650000000000000000000000000000600082015250565b6000610fa1601283610c23565b9150610fac82610f6b565b602082019050919050565b60006020820190508181036000830152610fd081610f94565b9050919050565b7f4e487b7100000000000000000000000000000000000000000000000000000000600052603260045260246000fd5b7f696e646578206f7574206f6620626f756e647300000000000000000000000000600082015250565b600061103c601383610c23565b915061104782611006565b602082019050919050565b6000602082019050818103600083015261106b8161102f565b9050919050565b7f4f776e657220646f6573206e6f74206861766520616e7920746f6b656e730000600082015250565b60006110a8601e83610c23565b91506110b382611072565b602082019050919050565b600060208201905081810360008301526110d78161109b565b9050919050565b7f4f6e6c7920746865206f776e65722063616e20617070726f766520746869732060008201527f746f6b656e000000000000000000000000000000000000000000000000000000602082015250565b600061113a602583610c23565b9150611145826110de565b604082019050919050565b600060208201905081810360008301526111698161112d565b9050919050565b7f746f6b656e496420646f6573206e6f7420657869737400000000000000000000600082015250565b60006111a6601683610c23565b91506111b182611170565b602082019050919050565b600060208201905081810360008301526111d581611199565b9050919050565b7f53656e64657220646f6573206e6f74206f776e207468697320746f6b656e0000600082015250565b6000611212601e83610c23565b915061121d826111dc565b602082019050919050565b6000602082019050818103600083015261124181611205565b9050919050565b7f4e487b7100000000000000000000000000000000000000000000000000000000600052601160045260246000fd5b600061128282610cca565b915061128d83610cca565b92508282039050818111156112a5576112a4611248565b5b92915050565b60006112b682610cca565b91506112c183610cca565b92508282019050808211156112d9576112d8611248565b5b9291505056fea2646970667358221220e04c17fcba38a9ca4d95f1c6dc45866e373c621a87519ff8c0c50e89d2f786f364736f6c63430008100033",
  "immutableReferences": {},
  "source": "// SPDX-License-Identifier: MIT\r\npragma solidity ^0.8.0;\r\nimport './ERC721Metadata.sol';\r\nimport './ERC721Enumerable.sol';\r\n\r\ncontract ERC721Connector is ERC721Metadata,ERC721Enumerable\r\n{\r\n    constructor(string memory name, string memory symbol) ERC721Metadata(name, symbol) public {\r\n        \r\n    }\r\n}",
  "sourcePath": "D:\\BlockChain\\nft-marketplace-starter-kit\\contracts\\libraries\\ERC721Connector.sol",
  "compiler": {
    "name": "solc",
    "version": "0.8.16+commit.07a7930e.Emscripten.clang"
  },
  "schemaVersion": "3.4.9",
  "updatedAt": "2022-08-18T13:30:09.802Z",
  "devdoc": {
    "kind": "dev",
    "methods": {},
    "version": 1
  },
  "userdoc": {
    "kind": "user",
    "methods": {},
    "version": 1
  }
}