{
  "contractName": "ERC721",
  "abi": [
    {
      "inputs": [],
      "stateMutability": "nonpayable",
      "type": "constructor"
    },
    {
      "anonymous": false,
      "inputs": [
        {
          "indexed": true,
          "internalType": "address",
          "name": "_owner",
          "type": "address"
        },
        {
          "indexed": true,
          "internalType": "address",
          "name": "_approved",
          "type": "address"
        },
        {
          "indexed": true,
          "internalType": "uint256",
          "name": "_tokenId",
          "type": "uint256"
        }
      ],
      "name": "Approval",
      "type": "event"
    },
    {
      "anonymous": false,
      "inputs": [
        {
          "indexed": true,
          "internalType": "address",
          "name": "_from",
          "type": "address"
        },
        {
          "indexed": true,
          "internalType": "address",
          "name": "_to",
          "type": "address"
        },
        {
          "indexed": true,
          "internalType": "uint256",
          "name": "_tokenId",
          "type": "uint256"
        }
      ],
      "name": "Transfer",
      "type": "event"
    },
    {
      "anonymous": false,
      "inputs": [
        {
          "indexed": true,
          "internalType": "address",
          "name": "owner",
          "type": "address"
        },
        {
          "indexed": true,
          "internalType": "address",
          "name": "approved",
          "type": "address"
        },
        {
          "indexed": true,
          "internalType": "uint256",
          "name": "tokenId",
          "type": "uint256"
        }
      ],
      "name": "approval",
      "type": "event"
    },
    {
      "anonymous": false,
      "inputs": [
        {
          "indexed": true,
          "internalType": "address",
          "name": "to",
          "type": "address"
        },
        {
          "indexed": true,
          "internalType": "address",
          "name": "from",
          "type": "address"
        },
        {
          "indexed": true,
          "internalType": "uint256",
          "name": "id",
          "type": "uint256"
        }
      ],
      "name": "transfer",
      "type": "event"
    },
    {
      "inputs": [
        {
          "internalType": "bytes4",
          "name": "",
          "type": "bytes4"
        }
      ],
      "name": "_supportedInterfaces",
      "outputs": [
        {
          "internalType": "bool",
          "name": "",
          "type": "bool"
        }
      ],
      "stateMutability": "view",
      "type": "function"
    },
    {
      "inputs": [
        {
          "internalType": "bytes4",
          "name": "interfaceID",
          "type": "bytes4"
        }
      ],
      "name": "supportsInterface",
      "outputs": [
        {
          "internalType": "bool",
          "name": "",
          "type": "bool"
        }
      ],
      "stateMutability": "view",
      "type": "function"
    },
    {
      "inputs": [
        {
          "internalType": "address",
          "name": "_owner",
          "type": "address"
        }
      ],
      "name": "balanceOf",
      "outputs": [
        {
          "internalType": "uint256",
          "name": "balance",
          "type": "uint256"
        }
      ],
      "stateMutability": "view",
      "type": "function"
    },
    {
      "inputs": [
        {
          "internalType": "uint256",
          "name": "_tokenId",
          "type": "uint256"
        }
      ],
      "name": "ownerOf",
      "outputs": [
        {
          "internalType": "address",
          "name": "owner",
          "type": "address"
        }
      ],
      "stateMutability": "view",
      "type": "function"
    },
    {
      "inputs": [
        {
          "internalType": "address",
          "name": "_from",
          "type": "address"
        },
        {
          "internalType": "address",
          "name": "_to",
          "type": "address"
        },
        {
          "internalType": "uint256",
          "name": "_tokenId",
          "type": "uint256"
        }
      ],
      "name": "transferFrom",
      "outputs": [],
      "stateMutability": "nonpayable",
      "type": "function"
    },
    {
      "inputs": [
        {
          "internalType": "address",
          "name": "_to",
          "type": "address"
        },
        {
          "internalType": "uint256",
          "name": "tokenId",
          "type": "uint256"
        }
      ],
      "name": "Approve",
      "outputs": [],
      "stateMutability": "nonpayable",
      "type": "function"
    }
  ],
  "bytecode": "0x608060405234801561001057600080fd5b506100407f01ffc9a7a5cef8baa21ed3c5c0d7e23accb804b619e9333b597f47a0d84076e26100da60201b60201c565b6100d57f3451e33ffec4a01fb0a4afc856838a4cbfc411f4a044d557b9a2cf6bdee26a197f22c82707ba960a14c7592ffb6b8cfaa073fed0048a84cc7fa41f6b5bd8e7f2e47f3a6eb71757dfc6e784c1459d26270140c2c147d95ca985c80026fc5301c3eca17f8a7e378434598edc36d108689a030cbc9d7d465de4f74c71bae1028eed6a881b1818186100da60201b60201c565b61022b565b63ffffffff60e01b817bffffffffffffffffffffffffffffffffffffffffffffffffffffffff191614610142576040517f08c379a00000000000000000000000000000000000000000000000000000000081526004016101399061020b565b60405180910390fd5b6001600080837bffffffffffffffffffffffffffffffffffffffffffffffffffffffff19167bffffffffffffffffffffffffffffffffffffffffffffffffffffffff1916815260200190815260200160002060006101000a81548160ff02191690831515021790555050565b600082825260208201905092915050565b7f4e6f7420612076616c69642045524331363520696e7465726661636500000000600082015250565b60006101f5601c836101ae565b9150610200826101bf565b602082019050919050565b60006020820190508181036000830152610224816101e8565b9050919050565b610dba8061023a6000396000f3fe608060405234801561001057600080fd5b50600436106100625760003560e01c806301ffc9a71461006757806323b872dd146100975780636352211e146100b357806370a08231146100e357806390ec57f114610113578063ef1944351461012f575b600080fd5b610081600480360381019061007c9190610862565b61015f565b60405161008e91906108aa565b60405180910390f35b6100b160048036038101906100ac9190610959565b6101c6565b005b6100cd60048036038101906100c891906109ac565b61021f565b6040516100da91906109e8565b60405180910390f35b6100fd60048036038101906100f89190610a03565b610261565b60405161010a9190610a3f565b60405180910390f35b61012d60048036038101906101289190610a5a565b61032b565b005b61014960048036038101906101449190610862565b6104c6565b60405161015691906108aa565b60405180910390f35b6000806000837bffffffffffffffffffffffffffffffffffffffffffffffffffffffff19167bffffffffffffffffffffffffffffffffffffffffffffffffffffffff1916815260200190815260200160002060009054906101000a900460ff169050919050565b6101d033826104e6565b61020f576040517f08c379a000000000000000000000000000000000000000000000000000000000815260040161020690610af7565b60405180910390fd5b61021a838383610575565b505050565b6000806001600084815260200190815260200160002060009054906101000a900473ffffffffffffffffffffffffffffffffffffffff16905080915050919050565b600080600260008473ffffffffffffffffffffffffffffffffffffffff1673ffffffffffffffffffffffffffffffffffffffff16815260200190815260200160002054036102e4576040517f08c379a00000000000000000000000000000000000000000000000000000000081526004016102db90610b63565b60405180910390fd5b600260008373ffffffffffffffffffffffffffffffffffffffff1673ffffffffffffffffffffffffffffffffffffffff168152602001908152602001600020549050919050565b60006103368261021f565b90508073ffffffffffffffffffffffffffffffffffffffff168373ffffffffffffffffffffffffffffffffffffffff16036103a6576040517f08c379a000000000000000000000000000000000000000000000000000000000815260040161039d90610bf5565b60405180910390fd5b8073ffffffffffffffffffffffffffffffffffffffff163373ffffffffffffffffffffffffffffffffffffffff1614610414576040517f08c379a000000000000000000000000000000000000000000000000000000000815260040161040b90610bf5565b60405180910390fd5b826003600084815260200190815260200160002060006101000a81548173ffffffffffffffffffffffffffffffffffffffff021916908373ffffffffffffffffffffffffffffffffffffffff160217905550818373ffffffffffffffffffffffffffffffffffffffff168273ffffffffffffffffffffffffffffffffffffffff167f5c52a5f2b86fd16be577188b5a83ef1165faddc00b137b10285f16162e17792a60405160405180910390a4505050565b60006020528060005260406000206000915054906101000a900460ff1681565b60006104f182610793565b610530576040517f08c379a000000000000000000000000000000000000000000000000000000000815260040161052790610c61565b60405180910390fd5b600061053b8361021f565b90508073ffffffffffffffffffffffffffffffffffffffff168473ffffffffffffffffffffffffffffffffffffffff161491505092915050565b61057e81610793565b6105bd576040517f08c379a00000000000000000000000000000000000000000000000000000000081526004016105b490610c61565b60405180910390fd5b8273ffffffffffffffffffffffffffffffffffffffff166105dd8261021f565b73ffffffffffffffffffffffffffffffffffffffff1614610633576040517f08c379a000000000000000000000000000000000000000000000000000000000815260040161062a90610ccd565b60405180910390fd5b6001600260008573ffffffffffffffffffffffffffffffffffffffff1673ffffffffffffffffffffffffffffffffffffffff16815260200190815260200160002060008282546106839190610d1c565b925050819055506001600260008473ffffffffffffffffffffffffffffffffffffffff1673ffffffffffffffffffffffffffffffffffffffff16815260200190815260200160002060008282546106da9190610d50565b92505081905550816001600083815260200190815260200160002060006101000a81548173ffffffffffffffffffffffffffffffffffffffff021916908373ffffffffffffffffffffffffffffffffffffffff160217905550808273ffffffffffffffffffffffffffffffffffffffff168473ffffffffffffffffffffffffffffffffffffffff167fbeabacc8ffedac16e9a60acdb2ca743d80c2ebb44977a93fa8e483c74d2b35a860405160405180910390a4505050565b6000806001600084815260200190815260200160002060009054906101000a900473ffffffffffffffffffffffffffffffffffffffff169050600073ffffffffffffffffffffffffffffffffffffffff168173ffffffffffffffffffffffffffffffffffffffff161415915050919050565b600080fd5b60007fffffffff0000000000000000000000000000000000000000000000000000000082169050919050565b61083f8161080a565b811461084a57600080fd5b50565b60008135905061085c81610836565b92915050565b60006020828403121561087857610877610805565b5b60006108868482850161084d565b91505092915050565b60008115159050919050565b6108a48161088f565b82525050565b60006020820190506108bf600083018461089b565b92915050565b600073ffffffffffffffffffffffffffffffffffffffff82169050919050565b60006108f0826108c5565b9050919050565b610900816108e5565b811461090b57600080fd5b50565b60008135905061091d816108f7565b92915050565b6000819050919050565b61093681610923565b811461094157600080fd5b50565b6000813590506109538161092d565b92915050565b60008060006060848603121561097257610971610805565b5b60006109808682870161090e565b93505060206109918682870161090e565b92505060406109a286828701610944565b9150509250925092565b6000602082840312156109c2576109c1610805565b5b60006109d084828501610944565b91505092915050565b6109e2816108e5565b82525050565b60006020820190506109fd60008301846109d9565b92915050565b600060208284031215610a1957610a18610805565b5b6000610a278482850161090e565b91505092915050565b610a3981610923565b82525050565b6000602082019050610a546000830184610a30565b92915050565b60008060408385031215610a7157610a70610805565b5b6000610a7f8582860161090e565b9250506020610a9085828601610944565b9150509250929050565b600082825260208201905092915050565b7f53656e646572206973206e6f7420617070726f766564206f72206f776e657200600082015250565b6000610ae1601f83610a9a565b9150610aec82610aab565b602082019050919050565b60006020820190508181036000830152610b1081610ad4565b9050919050565b7f4f776e657220646f6573206e6f74206861766520616e7920746f6b656e730000600082015250565b6000610b4d601e83610a9a565b9150610b5882610b17565b602082019050919050565b60006020820190508181036000830152610b7c81610b40565b9050919050565b7f4f6e6c7920746865206f776e65722063616e20617070726f766520746869732060008201527f746f6b656e000000000000000000000000000000000000000000000000000000602082015250565b6000610bdf602583610a9a565b9150610bea82610b83565b604082019050919050565b60006020820190508181036000830152610c0e81610bd2565b9050919050565b7f746f6b656e496420646f6573206e6f7420657869737400000000000000000000600082015250565b6000610c4b601683610a9a565b9150610c5682610c15565b602082019050919050565b60006020820190508181036000830152610c7a81610c3e565b9050919050565b7f53656e64657220646f6573206e6f74206f776e207468697320746f6b656e0000600082015250565b6000610cb7601e83610a9a565b9150610cc282610c81565b602082019050919050565b60006020820190508181036000830152610ce681610caa565b9050919050565b7f4e487b7100000000000000000000000000000000000000000000000000000000600052601160045260246000fd5b6000610d2782610923565b9150610d3283610923565b9250828203905081811115610d4a57610d49610ced565b5b92915050565b6000610d5b82610923565b9150610d6683610923565b9250828201905080821115610d7e57610d7d610ced565b5b9291505056fea2646970667358221220a13ab4be3689cfe274be605328f650b14545b50e0d068ef0661d294a99ea2d9264736f6c63430008100033",
  "immutableReferences": {},
  "source": "// SPDX-License-Identifier: MIT\r\npragma solidity ^0.8.0;\r\n\r\n// import './libraries/ERC165.sol';\r\n// import './interfaces/IERC721.sol';\r\nimport './ERC165.sol';\r\nimport '../interfaces/IERC721.sol';\r\n\r\ncontract ERC721 is ERC165, IERC721 {\r\n\r\n    event transfer(address indexed to, address indexed from , uint indexed id);\r\n    event approval(address indexed owner, address indexed approved, uint indexed tokenId);\r\n\r\n    mapping (uint => address) private _tokenOwner;\r\n    mapping (address => uint) private _tokenOwnedCount;\r\n    mapping (uint => address) private _tokenApprovals;\r\n    constructor()  {\r\n        _registedInterface(bytes4(keccak256('balanceOf(bytes4)')^\r\n        keccak256('ownerOf(bytes4)')^\r\n        keccak256('transferFrom(bytes4)')^\r\n        keccak256('approve(address,bytes4)')));\r\n    }\r\n\r\n    function exists(uint _tokenId) internal view returns (bool) {\r\n        address owner = _tokenOwner[_tokenId];\r\n        return owner != address(0);\r\n    }\r\n    function balanceOf(address _owner) public view returns (uint balance) {\r\n        require(_tokenOwnedCount[_owner] != 0, \"Owner does not have any tokens\");\r\n        return _tokenOwnedCount[_owner];\r\n    }\r\n    function ownerOf(uint _tokenId) public view returns (address owner) {\r\n        address _owner = _tokenOwner[_tokenId];\r\n        return _owner;\r\n    }\r\n    function _mint(address to, uint tokenId) virtual internal {\r\n        require(to != address(0), \"to address is not allowed to be 0x0\");\r\n        require(!exists(tokenId), \"tokenId already exists\");\r\n        _tokenOwner[tokenId] = to;\r\n        _tokenOwnedCount[to]++;\r\n        emit transfer(address(0),to, tokenId);\r\n    }\r\n    function _transferFrom(address _from, address _to, uint256 _tokenId) internal {\r\n        require(exists(_tokenId), \"tokenId does not exist\");\r\n        require(ownerOf(_tokenId) == _from, \"Sender does not own this token\");\r\n        _tokenOwnedCount[_from]-=1;\r\n        _tokenOwnedCount[_to]+=1;\r\n        _tokenOwner[_tokenId] = _to;\r\n        emit transfer(_from, _to, _tokenId);\r\n    }\r\n    function transferFrom(address _from, address _to, uint256 _tokenId) override public {\r\n        require(isApprovedOrOwner(msg.sender, _tokenId), \"Sender is not approved or owner\");\r\n        _transferFrom(_from, _to, _tokenId);\r\n    }\r\n    function Approve(address _to, uint tokenId) public {\r\n        address owner = ownerOf(tokenId);\r\n        require(_to != owner, \"Only the owner can approve this token\");\r\n        require(msg.sender == owner, \"Only the owner can approve this token\");\r\n        _tokenApprovals[tokenId] = _to;\r\n        emit approval(owner, _to, tokenId);\r\n    }\r\n    function isApprovedOrOwner(address spender,uint _tokenId) internal view returns (bool) {\r\n        require(exists(_tokenId), \"tokenId does not exist\");\r\n        address owner = ownerOf(_tokenId);\r\n        return (spender == owner);\r\n    }\r\n}",
  "sourcePath": "D:\\BlockChain\\nft-marketplace-starter-kit\\contracts\\libraries\\ERC721.sol",
  "compiler": {
    "name": "solc",
    "version": "0.8.16+commit.07a7930e.Emscripten.clang"
  },
  "schemaVersion": "3.4.9",
  "updatedAt": "2022-08-18T13:30:09.747Z",
  "devdoc": {
    "kind": "dev",
    "methods": {},
    "version": 1
  },
  "userdoc": {
    "kind": "user",
    "methods": {},
    "version": 1
  }
}