{
  "contractName": "ERC721Enumerable",
  "abi": [
    {
      "anonymous": false,
      "inputs": [
        {
          "indexed": true,
          "internalType": "address",
          "name": "_owner",
          "type": "address"
        },
        {
          "indexed": true,
          "internalType": "address",
          "name": "_approved",
          "type": "address"
        },
        {
          "indexed": true,
          "internalType": "uint256",
          "name": "_tokenId",
          "type": "uint256"
        }
      ],
      "name": "Approval",
      "type": "event"
    },
    {
      "anonymous": false,
      "inputs": [
        {
          "indexed": true,
          "internalType": "address",
          "name": "_from",
          "type": "address"
        },
        {
          "indexed": true,
          "internalType": "address",
          "name": "_to",
          "type": "address"
        },
        {
          "indexed": true,
          "internalType": "uint256",
          "name": "_tokenId",
          "type": "uint256"
        }
      ],
      "name": "Transfer",
      "type": "event"
    },
    {
      "anonymous": false,
      "inputs": [
        {
          "indexed": true,
          "internalType": "address",
          "name": "owner",
          "type": "address"
        },
        {
          "indexed": true,
          "internalType": "address",
          "name": "approved",
          "type": "address"
        },
        {
          "indexed": true,
          "internalType": "uint256",
          "name": "tokenId",
          "type": "uint256"
        }
      ],
      "name": "approval",
      "type": "event"
    },
    {
      "anonymous": false,
      "inputs": [
        {
          "indexed": true,
          "internalType": "address",
          "name": "to",
          "type": "address"
        },
        {
          "indexed": true,
          "internalType": "address",
          "name": "from",
          "type": "address"
        },
        {
          "indexed": true,
          "internalType": "uint256",
          "name": "id",
          "type": "uint256"
        }
      ],
      "name": "transfer",
      "type": "event"
    },
    {
      "inputs": [
        {
          "internalType": "address",
          "name": "_to",
          "type": "address"
        },
        {
          "internalType": "uint256",
          "name": "tokenId",
          "type": "uint256"
        }
      ],
      "name": "Approve",
      "outputs": [],
      "stateMutability": "nonpayable",
      "type": "function"
    },
    {
      "inputs": [
        {
          "internalType": "bytes4",
          "name": "",
          "type": "bytes4"
        }
      ],
      "name": "_supportedInterfaces",
      "outputs": [
        {
          "internalType": "bool",
          "name": "",
          "type": "bool"
        }
      ],
      "stateMutability": "view",
      "type": "function"
    },
    {
      "inputs": [
        {
          "internalType": "address",
          "name": "_owner",
          "type": "address"
        }
      ],
      "name": "balanceOf",
      "outputs": [
        {
          "internalType": "uint256",
          "name": "balance",
          "type": "uint256"
        }
      ],
      "stateMutability": "view",
      "type": "function"
    },
    {
      "inputs": [
        {
          "internalType": "uint256",
          "name": "_tokenId",
          "type": "uint256"
        }
      ],
      "name": "ownerOf",
      "outputs": [
        {
          "internalType": "address",
          "name": "owner",
          "type": "address"
        }
      ],
      "stateMutability": "view",
      "type": "function"
    },
    {
      "inputs": [
        {
          "internalType": "bytes4",
          "name": "interfaceID",
          "type": "bytes4"
        }
      ],
      "name": "supportsInterface",
      "outputs": [
        {
          "internalType": "bool",
          "name": "",
          "type": "bool"
        }
      ],
      "stateMutability": "view",
      "type": "function"
    },
    {
      "inputs": [
        {
          "internalType": "address",
          "name": "_from",
          "type": "address"
        },
        {
          "internalType": "address",
          "name": "_to",
          "type": "address"
        },
        {
          "internalType": "uint256",
          "name": "_tokenId",
          "type": "uint256"
        }
      ],
      "name": "transferFrom",
      "outputs": [],
      "stateMutability": "nonpayable",
      "type": "function"
    },
    {
      "inputs": [
        {
          "internalType": "address",
          "name": "owner",
          "type": "address"
        },
        {
          "internalType": "uint256",
          "name": "index",
          "type": "uint256"
        }
      ],
      "name": "tokenOfOwnerByIndex",
      "outputs": [
        {
          "internalType": "uint256",
          "name": "",
          "type": "uint256"
        }
      ],
      "stateMutability": "view",
      "type": "function"
    },
    {
      "inputs": [],
      "name": "totalSupply",
      "outputs": [
        {
          "internalType": "uint256",
          "name": "",
          "type": "uint256"
        }
      ],
      "stateMutability": "view",
      "type": "function"
    },
    {
      "inputs": [
        {
          "internalType": "uint256",
          "name": "index",
          "type": "uint256"
        }
      ],
      "name": "tokenByIndex",
      "outputs": [
        {
          "internalType": "uint256",
          "name": "",
          "type": "uint256"
        }
      ],
      "stateMutability": "view",
      "type": "function"
    }
  ],
  "bytecode": "0x60806040523480156200001157600080fd5b50620000437f01ffc9a7a5cef8baa21ed3c5c0d7e23accb804b619e9333b597f47a0d84076e2620000e060201b60201c565b620000da7f3451e33ffec4a01fb0a4afc856838a4cbfc411f4a044d557b9a2cf6bdee26a197f22c82707ba960a14c7592ffb6b8cfaa073fed0048a84cc7fa41f6b5bd8e7f2e47f3a6eb71757dfc6e784c1459d26270140c2c147d95ca985c80026fc5301c3eca17f8a7e378434598edc36d108689a030cbc9d7d465de4f74c71bae1028eed6a881b181818620000e060201b60201c565b6200023a565b63ffffffff60e01b817bffffffffffffffffffffffffffffffffffffffffffffffffffffffff1916146200014b576040517f08c379a0000000000000000000000000000000000000000000000000000000008152600401620001429062000218565b60405180910390fd5b6001600080837bffffffffffffffffffffffffffffffffffffffffffffffffffffffff19167bffffffffffffffffffffffffffffffffffffffffffffffffffffffff1916815260200190815260200160002060006101000a81548160ff02191690831515021790555050565b600082825260208201905092915050565b7f4e6f7420612076616c69642045524331363520696e7465726661636500000000600082015250565b600062000200601c83620001b7565b91506200020d82620001c8565b602082019050919050565b600060208201905081810360008301526200023381620001f1565b9050919050565b61109e806200024a6000396000f3fe608060405234801561001057600080fd5b50600436106100935760003560e01c80634f6ccce7116100665780634f6ccce7146101325780636352211e1461016257806370a082311461019257806390ec57f1146101c2578063ef194435146101de57610093565b806301ffc9a71461009857806318160ddd146100c857806323b872dd146100e65780632f745c5914610102575b600080fd5b6100b260048036038101906100ad9190610a3f565b61020e565b6040516100bf9190610a87565b60405180910390f35b6100d0610275565b6040516100dd9190610abb565b60405180910390f35b61010060048036038101906100fb9190610b60565b610282565b005b61011c60048036038101906101179190610bb3565b6102db565b6040516101299190610abb565b60405180910390f35b61014c60048036038101906101479190610bf3565b61038b565b6040516101599190610abb565b60405180910390f35b61017c60048036038101906101779190610bf3565b6103fc565b6040516101899190610c2f565b60405180910390f35b6101ac60048036038101906101a79190610c4a565b61043e565b6040516101b99190610abb565b60405180910390f35b6101dc60048036038101906101d79190610bb3565b610508565b005b6101f860048036038101906101f39190610a3f565b6106a3565b6040516102059190610a87565b60405180910390f35b6000806000837bffffffffffffffffffffffffffffffffffffffffffffffffffffffff19167bffffffffffffffffffffffffffffffffffffffffffffffffffffffff1916815260200190815260200160002060009054906101000a900460ff169050919050565b6000600480549050905090565b61028c33826106c3565b6102cb576040517f08c379a00000000000000000000000000000000000000000000000000000000081526004016102c290610cd4565b60405180910390fd5b6102d6838383610752565b505050565b60006102e68361043e565b8210610327576040517f08c379a000000000000000000000000000000000000000000000000000000000815260040161031e90610d40565b60405180910390fd5b600660008473ffffffffffffffffffffffffffffffffffffffff1673ffffffffffffffffffffffffffffffffffffffff168152602001908152602001600020828154811061037857610377610d60565b5b9060005260206000200154905092915050565b6000610395610275565b82106103d6576040517f08c379a00000000000000000000000000000000000000000000000000000000081526004016103cd90610ddb565b60405180910390fd5b600482815481106103ea576103e9610d60565b5b90600052602060002001549050919050565b6000806001600084815260200190815260200160002060009054906101000a900473ffffffffffffffffffffffffffffffffffffffff16905080915050919050565b600080600260008473ffffffffffffffffffffffffffffffffffffffff1673ffffffffffffffffffffffffffffffffffffffff16815260200190815260200160002054036104c1576040517f08c379a00000000000000000000000000000000000000000000000000000000081526004016104b890610e47565b60405180910390fd5b600260008373ffffffffffffffffffffffffffffffffffffffff1673ffffffffffffffffffffffffffffffffffffffff168152602001908152602001600020549050919050565b6000610513826103fc565b90508073ffffffffffffffffffffffffffffffffffffffff168373ffffffffffffffffffffffffffffffffffffffff1603610583576040517f08c379a000000000000000000000000000000000000000000000000000000000815260040161057a90610ed9565b60405180910390fd5b8073ffffffffffffffffffffffffffffffffffffffff163373ffffffffffffffffffffffffffffffffffffffff16146105f1576040517f08c379a00000000000000000000000000000000000000000000000000000000081526004016105e890610ed9565b60405180910390fd5b826003600084815260200190815260200160002060006101000a81548173ffffffffffffffffffffffffffffffffffffffff021916908373ffffffffffffffffffffffffffffffffffffffff160217905550818373ffffffffffffffffffffffffffffffffffffffff168273ffffffffffffffffffffffffffffffffffffffff167f5c52a5f2b86fd16be577188b5a83ef1165faddc00b137b10285f16162e17792a60405160405180910390a4505050565b60006020528060005260406000206000915054906101000a900460ff1681565b60006106ce82610970565b61070d576040517f08c379a000000000000000000000000000000000000000000000000000000000815260040161070490610f45565b60405180910390fd5b6000610718836103fc565b90508073ffffffffffffffffffffffffffffffffffffffff168473ffffffffffffffffffffffffffffffffffffffff161491505092915050565b61075b81610970565b61079a576040517f08c379a000000000000000000000000000000000000000000000000000000000815260040161079190610f45565b60405180910390fd5b8273ffffffffffffffffffffffffffffffffffffffff166107ba826103fc565b73ffffffffffffffffffffffffffffffffffffffff1614610810576040517f08c379a000000000000000000000000000000000000000000000000000000000815260040161080790610fb1565b60405180910390fd5b6001600260008573ffffffffffffffffffffffffffffffffffffffff1673ffffffffffffffffffffffffffffffffffffffff16815260200190815260200160002060008282546108609190611000565b925050819055506001600260008473ffffffffffffffffffffffffffffffffffffffff1673ffffffffffffffffffffffffffffffffffffffff16815260200190815260200160002060008282546108b79190611034565b92505081905550816001600083815260200190815260200160002060006101000a81548173ffffffffffffffffffffffffffffffffffffffff021916908373ffffffffffffffffffffffffffffffffffffffff160217905550808273ffffffffffffffffffffffffffffffffffffffff168473ffffffffffffffffffffffffffffffffffffffff167fbeabacc8ffedac16e9a60acdb2ca743d80c2ebb44977a93fa8e483c74d2b35a860405160405180910390a4505050565b6000806001600084815260200190815260200160002060009054906101000a900473ffffffffffffffffffffffffffffffffffffffff169050600073ffffffffffffffffffffffffffffffffffffffff168173ffffffffffffffffffffffffffffffffffffffff161415915050919050565b600080fd5b60007fffffffff0000000000000000000000000000000000000000000000000000000082169050919050565b610a1c816109e7565b8114610a2757600080fd5b50565b600081359050610a3981610a13565b92915050565b600060208284031215610a5557610a546109e2565b5b6000610a6384828501610a2a565b91505092915050565b60008115159050919050565b610a8181610a6c565b82525050565b6000602082019050610a9c6000830184610a78565b92915050565b6000819050919050565b610ab581610aa2565b82525050565b6000602082019050610ad06000830184610aac565b92915050565b600073ffffffffffffffffffffffffffffffffffffffff82169050919050565b6000610b0182610ad6565b9050919050565b610b1181610af6565b8114610b1c57600080fd5b50565b600081359050610b2e81610b08565b92915050565b610b3d81610aa2565b8114610b4857600080fd5b50565b600081359050610b5a81610b34565b92915050565b600080600060608486031215610b7957610b786109e2565b5b6000610b8786828701610b1f565b9350506020610b9886828701610b1f565b9250506040610ba986828701610b4b565b9150509250925092565b60008060408385031215610bca57610bc96109e2565b5b6000610bd885828601610b1f565b9250506020610be985828601610b4b565b9150509250929050565b600060208284031215610c0957610c086109e2565b5b6000610c1784828501610b4b565b91505092915050565b610c2981610af6565b82525050565b6000602082019050610c446000830184610c20565b92915050565b600060208284031215610c6057610c5f6109e2565b5b6000610c6e84828501610b1f565b91505092915050565b600082825260208201905092915050565b7f53656e646572206973206e6f7420617070726f766564206f72206f776e657200600082015250565b6000610cbe601f83610c77565b9150610cc982610c88565b602082019050919050565b60006020820190508181036000830152610ced81610cb1565b9050919050565b7f696e646578206f7574206f662072616e67650000000000000000000000000000600082015250565b6000610d2a601283610c77565b9150610d3582610cf4565b602082019050919050565b60006020820190508181036000830152610d5981610d1d565b9050919050565b7f4e487b7100000000000000000000000000000000000000000000000000000000600052603260045260246000fd5b7f696e646578206f7574206f6620626f756e647300000000000000000000000000600082015250565b6000610dc5601383610c77565b9150610dd082610d8f565b602082019050919050565b60006020820190508181036000830152610df481610db8565b9050919050565b7f4f776e657220646f6573206e6f74206861766520616e7920746f6b656e730000600082015250565b6000610e31601e83610c77565b9150610e3c82610dfb565b602082019050919050565b60006020820190508181036000830152610e6081610e24565b9050919050565b7f4f6e6c7920746865206f776e65722063616e20617070726f766520746869732060008201527f746f6b656e000000000000000000000000000000000000000000000000000000602082015250565b6000610ec3602583610c77565b9150610ece82610e67565b604082019050919050565b60006020820190508181036000830152610ef281610eb6565b9050919050565b7f746f6b656e496420646f6573206e6f7420657869737400000000000000000000600082015250565b6000610f2f601683610c77565b9150610f3a82610ef9565b602082019050919050565b60006020820190508181036000830152610f5e81610f22565b9050919050565b7f53656e64657220646f6573206e6f74206f776e207468697320746f6b656e0000600082015250565b6000610f9b601e83610c77565b9150610fa682610f65565b602082019050919050565b60006020820190508181036000830152610fca81610f8e565b9050919050565b7f4e487b7100000000000000000000000000000000000000000000000000000000600052601160045260246000fd5b600061100b82610aa2565b915061101683610aa2565b925082820390508181111561102e5761102d610fd1565b5b92915050565b600061103f82610aa2565b915061104a83610aa2565b925082820190508082111561106257611061610fd1565b5b9291505056fea2646970667358221220cad3f19545b7bbb6312bb8663df98ed9902acc6db672ab4e7b71bebb1801b30564736f6c63430008100033",
  "immutableReferences": {},
  "source": "// SPDX-License-Identifier: MIT\r\npragma solidity ^0.8.0;\r\nimport './ERC721.sol';\r\nimport '../interfaces/IERC721Enumerable.sol';\r\n contract ERC721Enumerable is IERC721Enumerable ,ERC721  {\r\n    \r\n    uint[] private _alltokens;\r\n    mapping (uint => uint) private _allTokenIndex;\r\n    mapping (address => uint[]) private _ownedTokens;\r\n    mapping(uint =>uint) private _ownedTokenIndex;\r\n\r\n    // constructor()  {\r\n    //     _registedInterface(bytes4(keccak256('supportsInterface(bytes4)')^\r\n    //     keccak256('totalSupply(bytes4)')^\r\n    //     keccak256('transferFrom(bytes4)')^\r\n    //     keccak256('approve(address,bytes4)')));\r\n    // }\r\n\r\n    function tokenOfOwnerByIndex(address owner, uint index) public view returns (uint) {\r\n        require(index < balanceOf(owner), \"index out of range\");\r\n        return _ownedTokens[owner][index];\r\n    }\r\n\r\n    function totalSupply() public view returns (uint256){\r\n        return _alltokens.length;\r\n    }\r\n\r\n    function tokenByIndex(uint index) public view returns (uint) {\r\n        require(index < totalSupply(), \"index out of bounds\");\r\n        return _alltokens[index];\r\n    }\r\n    \r\n    // function tokenByIndex(uint256 _index) external view returns (uint256){\r\n    //     return _alltokens[_index];\r\n    // }\r\n\r\n    // function tokenOfOwnerByIndex(address _owner, uint256 _index) external view returns (uint256){\r\n    //     uint256 tokenId = _alltokens[_index];\r\n    //     return ownerOf(tokenId);\r\n    // }\r\n\r\n    function _mint(address to, uint tokenId) internal override(ERC721) {\r\n       super._mint(to, tokenId);\r\n       _addTokensToAllTokensEnumeration(tokenId);\r\n    _addTokenstoOwnerEnumerations(to, tokenId);\r\n\r\n    }\r\n\r\n    function _addTokenstoOwnerEnumerations(address to,uint tokenId) private {\r\n        _ownedTokens[to].push(tokenId);\r\n        _ownedTokenIndex[tokenId] = _ownedTokens[to].length;\r\n    }\r\n\r\n    function _addTokensToAllTokensEnumeration(uint256 tokenId) internal {\r\n        _allTokenIndex[tokenId] = _alltokens.length;\r\n        _alltokens.push(tokenId);\r\n        // _allTokenIndex[tokenId] = _alltokens.length - 1;\r\n    }\r\n    \r\n }",
  "sourcePath": "D:\\BlockChain\\nft-marketplace-starter-kit\\contracts\\libraries\\ERC721Enumerable.sol",
  "compiler": {
    "name": "solc",
    "version": "0.8.16+commit.07a7930e.Emscripten.clang"
  },
  "schemaVersion": "3.4.9",
  "updatedAt": "2022-08-18T13:30:09.869Z",
  "devdoc": {
    "kind": "dev",
    "methods": {},
    "version": 1
  },
  "userdoc": {
    "kind": "user",
    "methods": {},
    "version": 1
  }
}