{
  "contractName": "KryptoBirdz",
  "abi": [
    {
      "inputs": [],
      "stateMutability": "nonpayable",
      "type": "constructor"
    },
    {
      "anonymous": false,
      "inputs": [
        {
          "indexed": true,
          "internalType": "address",
          "name": "_owner",
          "type": "address"
        },
        {
          "indexed": true,
          "internalType": "address",
          "name": "_approved",
          "type": "address"
        },
        {
          "indexed": true,
          "internalType": "uint256",
          "name": "_tokenId",
          "type": "uint256"
        }
      ],
      "name": "Approval",
      "type": "event"
    },
    {
      "anonymous": false,
      "inputs": [
        {
          "indexed": true,
          "internalType": "address",
          "name": "_from",
          "type": "address"
        },
        {
          "indexed": true,
          "internalType": "address",
          "name": "_to",
          "type": "address"
        },
        {
          "indexed": true,
          "internalType": "uint256",
          "name": "_tokenId",
          "type": "uint256"
        }
      ],
      "name": "Transfer",
      "type": "event"
    },
    {
      "anonymous": false,
      "inputs": [
        {
          "indexed": true,
          "internalType": "address",
          "name": "owner",
          "type": "address"
        },
        {
          "indexed": true,
          "internalType": "address",
          "name": "approved",
          "type": "address"
        },
        {
          "indexed": true,
          "internalType": "uint256",
          "name": "tokenId",
          "type": "uint256"
        }
      ],
      "name": "approval",
      "type": "event"
    },
    {
      "anonymous": false,
      "inputs": [
        {
          "indexed": true,
          "internalType": "address",
          "name": "to",
          "type": "address"
        },
        {
          "indexed": true,
          "internalType": "address",
          "name": "from",
          "type": "address"
        },
        {
          "indexed": true,
          "internalType": "uint256",
          "name": "id",
          "type": "uint256"
        }
      ],
      "name": "transfer",
      "type": "event"
    },
    {
      "inputs": [
        {
          "internalType": "address",
          "name": "_to",
          "type": "address"
        },
        {
          "internalType": "uint256",
          "name": "tokenId",
          "type": "uint256"
        }
      ],
      "name": "Approve",
      "outputs": [],
      "stateMutability": "nonpayable",
      "type": "function"
    },
    {
      "inputs": [
        {
          "internalType": "bytes4",
          "name": "",
          "type": "bytes4"
        }
      ],
      "name": "_supportedInterfaces",
      "outputs": [
        {
          "internalType": "bool",
          "name": "",
          "type": "bool"
        }
      ],
      "stateMutability": "view",
      "type": "function"
    },
    {
      "inputs": [
        {
          "internalType": "address",
          "name": "_owner",
          "type": "address"
        }
      ],
      "name": "balanceOf",
      "outputs": [
        {
          "internalType": "uint256",
          "name": "balance",
          "type": "uint256"
        }
      ],
      "stateMutability": "view",
      "type": "function"
    },
    {
      "inputs": [
        {
          "internalType": "uint256",
          "name": "",
          "type": "uint256"
        }
      ],
      "name": "kryptoBirdz",
      "outputs": [
        {
          "internalType": "string",
          "name": "",
          "type": "string"
        }
      ],
      "stateMutability": "view",
      "type": "function"
    },
    {
      "inputs": [
        {
          "internalType": "string",
          "name": "",
          "type": "string"
        }
      ],
      "name": "kryptoBirdzExist",
      "outputs": [
        {
          "internalType": "bool",
          "name": "",
          "type": "bool"
        }
      ],
      "stateMutability": "view",
      "type": "function"
    },
    {
      "inputs": [],
      "name": "name",
      "outputs": [
        {
          "internalType": "string",
          "name": "",
          "type": "string"
        }
      ],
      "stateMutability": "view",
      "type": "function"
    },
    {
      "inputs": [
        {
          "internalType": "uint256",
          "name": "_tokenId",
          "type": "uint256"
        }
      ],
      "name": "ownerOf",
      "outputs": [
        {
          "internalType": "address",
          "name": "owner",
          "type": "address"
        }
      ],
      "stateMutability": "view",
      "type": "function"
    },
    {
      "inputs": [
        {
          "internalType": "bytes4",
          "name": "interfaceID",
          "type": "bytes4"
        }
      ],
      "name": "supportsInterface",
      "outputs": [
        {
          "internalType": "bool",
          "name": "",
          "type": "bool"
        }
      ],
      "stateMutability": "view",
      "type": "function"
    },
    {
      "inputs": [],
      "name": "symbol",
      "outputs": [
        {
          "internalType": "string",
          "name": "",
          "type": "string"
        }
      ],
      "stateMutability": "view",
      "type": "function"
    },
    {
      "inputs": [
        {
          "internalType": "uint256",
          "name": "index",
          "type": "uint256"
        }
      ],
      "name": "tokenByIndex",
      "outputs": [
        {
          "internalType": "uint256",
          "name": "",
          "type": "uint256"
        }
      ],
      "stateMutability": "view",
      "type": "function"
    },
    {
      "inputs": [
        {
          "internalType": "address",
          "name": "owner",
          "type": "address"
        },
        {
          "internalType": "uint256",
          "name": "index",
          "type": "uint256"
        }
      ],
      "name": "tokenOfOwnerByIndex",
      "outputs": [
        {
          "internalType": "uint256",
          "name": "",
          "type": "uint256"
        }
      ],
      "stateMutability": "view",
      "type": "function"
    },
    {
      "inputs": [],
      "name": "totalSupply",
      "outputs": [
        {
          "internalType": "uint256",
          "name": "",
          "type": "uint256"
        }
      ],
      "stateMutability": "view",
      "type": "function"
    },
    {
      "inputs": [
        {
          "internalType": "address",
          "name": "_from",
          "type": "address"
        },
        {
          "internalType": "address",
          "name": "_to",
          "type": "address"
        },
        {
          "internalType": "uint256",
          "name": "_tokenId",
          "type": "uint256"
        }
      ],
      "name": "transferFrom",
      "outputs": [],
      "stateMutability": "nonpayable",
      "type": "function"
    },
    {
      "inputs": [
        {
          "internalType": "string",
          "name": "_kryptoBirdz",
          "type": "string"
        }
      ],
      "name": "mint",
      "outputs": [],
      "stateMutability": "nonpayable",
      "type": "function"
    }
  ],
  "bytecode": "0x60806040523480156200001157600080fd5b506040518060400160405280600b81526020017f4b727970746f426972647a0000000000000000000000000000000000000000008152506040518060400160405280600681526020017f4b424952445a00000000000000000000000000000000000000000000000000008152508181620000b17f01ffc9a7a5cef8baa21ed3c5c0d7e23accb804b619e9333b597f47a0d84076e2620001c960201b60201c565b620001047f13b182f4c0e5b2efbac0efe6cf6d756c8b89f4b79c5707a043ed9ea740574ee97f7feaf19471f34a12a7eaf32d5f3090aa2260ea8624dc8a138e74e0bf0f62307618620001c960201b60201c565b81600190816200011591906200051a565b5080600290816200012791906200051a565b505050620001c17f3451e33ffec4a01fb0a4afc856838a4cbfc411f4a044d557b9a2cf6bdee26a197f22c82707ba960a14c7592ffb6b8cfaa073fed0048a84cc7fa41f6b5bd8e7f2e47f3a6eb71757dfc6e784c1459d26270140c2c147d95ca985c80026fc5301c3eca17f8a7e378434598edc36d108689a030cbc9d7d465de4f74c71bae1028eed6a881b181818620001c960201b60201c565b505062000684565b63ffffffff60e01b817bffffffffffffffffffffffffffffffffffffffffffffffffffffffff19161462000234576040517f08c379a00000000000000000000000000000000000000000000000000000000081526004016200022b9062000662565b60405180910390fd5b6001600080837bffffffffffffffffffffffffffffffffffffffffffffffffffffffff19167bffffffffffffffffffffffffffffffffffffffffffffffffffffffff1916815260200190815260200160002060006101000a81548160ff02191690831515021790555050565b600081519050919050565b7f4e487b7100000000000000000000000000000000000000000000000000000000600052604160045260246000fd5b7f4e487b7100000000000000000000000000000000000000000000000000000000600052602260045260246000fd5b600060028204905060018216806200032257607f821691505b602082108103620003385762000337620002da565b5b50919050565b60008190508160005260206000209050919050565b60006020601f8301049050919050565b600082821b905092915050565b600060088302620003a27fffffffffffffffffffffffffffffffffffffffffffffffffffffffffffffffff8262000363565b620003ae868362000363565b95508019841693508086168417925050509392505050565b6000819050919050565b6000819050919050565b6000620003fb620003f5620003ef84620003c6565b620003d0565b620003c6565b9050919050565b6000819050919050565b6200041783620003da565b6200042f620004268262000402565b84845462000370565b825550505050565b600090565b6200044662000437565b620004538184846200040c565b505050565b5b818110156200047b576200046f6000826200043c565b60018101905062000459565b5050565b601f821115620004ca5762000494816200033e565b6200049f8462000353565b81016020851015620004af578190505b620004c7620004be8562000353565b83018262000458565b50505b505050565b600082821c905092915050565b6000620004ef60001984600802620004cf565b1980831691505092915050565b60006200050a8383620004dc565b9150826002028217905092915050565b6200052582620002a0565b67ffffffffffffffff811115620005415762000540620002ab565b5b6200054d825462000309565b6200055a8282856200047f565b600060209050601f8311600181146200059257600084156200057d578287015190505b620005898582620004fc565b865550620005f9565b601f198416620005a2866200033e565b60005b82811015620005cc57848901518255600182019150602085019450602081019050620005a5565b86831015620005ec5784890151620005e8601f891682620004dc565b8355505b6001600288020188555050505b505050505050565b600082825260208201905092915050565b7f4e6f7420612076616c69642045524331363520696e7465726661636500000000600082015250565b60006200064a601c8362000601565b9150620006578262000612565b602082019050919050565b600060208201905081810360008301526200067d816200063b565b9050919050565b611ead80620006946000396000f3fe608060405234801561001057600080fd5b50600436106100ea5760003560e01c806370a082311161008c57806395d89b411161006657806395d89b4114610283578063d85d3d27146102a1578063ef194435146102bd578063fb343150146102ed576100ea565b806370a082311461020757806390ec57f11461023757806393ab6e5614610253576100ea565b806323b872dd116100c857806323b872dd1461015b5780632f745c59146101775780634f6ccce7146101a75780636352211e146101d7576100ea565b806301ffc9a7146100ef57806306fdde031461011f57806318160ddd1461013d575b600080fd5b6101096004803603810190610104919061114c565b61031d565b6040516101169190611194565b60405180910390f35b610127610384565b604051610134919061123f565b60405180910390f35b610145610416565b604051610152919061127a565b60405180910390f35b6101756004803603810190610170919061131f565b610423565b005b610191600480360381019061018c9190611372565b61047c565b60405161019e919061127a565b60405180910390f35b6101c160048036038101906101bc91906113b2565b61052c565b6040516101ce919061127a565b60405180910390f35b6101f160048036038101906101ec91906113b2565b61059d565b6040516101fe91906113ee565b60405180910390f35b610221600480360381019061021c9190611409565b6105df565b60405161022e919061127a565b60405180910390f35b610251600480360381019061024c9190611372565b6106a9565b005b61026d600480360381019061026891906113b2565b610844565b60405161027a919061123f565b60405180910390f35b61028b6108f0565b604051610298919061123f565b60405180910390f35b6102bb60048036038101906102b6919061156b565b610982565b005b6102d760048036038101906102d2919061114c565b610a7e565b6040516102e49190611194565b60405180910390f35b6103076004803603810190610302919061156b565b610a9e565b6040516103149190611194565b60405180910390f35b6000806000837bffffffffffffffffffffffffffffffffffffffffffffffffffffffff19167bffffffffffffffffffffffffffffffffffffffffffffffffffffffff1916815260200190815260200160002060009054906101000a900460ff169050919050565b606060018054610393906115e3565b80601f01602080910402602001604051908101604052809291908181526020018280546103bf906115e3565b801561040c5780601f106103e15761010080835404028352916020019161040c565b820191906000526020600020905b8154815290600101906020018083116103ef57829003601f168201915b5050505050905090565b6000600680549050905090565b61042d3382610ad4565b61046c576040517f08c379a000000000000000000000000000000000000000000000000000000000815260040161046390611660565b60405180910390fd5b610477838383610b63565b505050565b6000610487836105df565b82106104c8576040517f08c379a00000000000000000000000000000000000000000000000000000000081526004016104bf906116cc565b60405180910390fd5b600860008473ffffffffffffffffffffffffffffffffffffffff1673ffffffffffffffffffffffffffffffffffffffff1681526020019081526020016000208281548110610519576105186116ec565b5b9060005260206000200154905092915050565b6000610536610416565b8210610577576040517f08c379a000000000000000000000000000000000000000000000000000000000815260040161056e90611767565b60405180910390fd5b6006828154811061058b5761058a6116ec565b5b90600052602060002001549050919050565b6000806003600084815260200190815260200160002060009054906101000a900473ffffffffffffffffffffffffffffffffffffffff16905080915050919050565b600080600460008473ffffffffffffffffffffffffffffffffffffffff1673ffffffffffffffffffffffffffffffffffffffff1681526020019081526020016000205403610662576040517f08c379a0000000000000000000000000000000000000000000000000000000008152600401610659906117d3565b60405180910390fd5b600460008373ffffffffffffffffffffffffffffffffffffffff1673ffffffffffffffffffffffffffffffffffffffff168152602001908152602001600020549050919050565b60006106b48261059d565b90508073ffffffffffffffffffffffffffffffffffffffff168373ffffffffffffffffffffffffffffffffffffffff1603610724576040517f08c379a000000000000000000000000000000000000000000000000000000000815260040161071b90611865565b60405180910390fd5b8073ffffffffffffffffffffffffffffffffffffffff163373ffffffffffffffffffffffffffffffffffffffff1614610792576040517f08c379a000000000000000000000000000000000000000000000000000000000815260040161078990611865565b60405180910390fd5b826005600084815260200190815260200160002060006101000a81548173ffffffffffffffffffffffffffffffffffffffff021916908373ffffffffffffffffffffffffffffffffffffffff160217905550818373ffffffffffffffffffffffffffffffffffffffff168273ffffffffffffffffffffffffffffffffffffffff167f5c52a5f2b86fd16be577188b5a83ef1165faddc00b137b10285f16162e17792a60405160405180910390a4505050565b600a818154811061085457600080fd5b90600052602060002001600091509050805461086f906115e3565b80601f016020809104026020016040519081016040528092919081815260200182805461089b906115e3565b80156108e85780601f106108bd576101008083540402835291602001916108e8565b820191906000526020600020905b8154815290600101906020018083116108cb57829003601f168201915b505050505081565b6060600280546108ff906115e3565b80601f016020809104026020016040519081016040528092919081815260200182805461092b906115e3565b80156109785780601f1061094d57610100808354040283529160200191610978565b820191906000526020600020905b81548152906001019060200180831161095b57829003601f168201915b5050505050905090565b600b8160405161099291906118c1565b908152602001604051809103902060009054906101000a900460ff16156109ee576040517f08c379a00000000000000000000000000000000000000000000000000000000081526004016109e590611924565b60405180910390fd5b600a81908060018154018082558091505060019003906000526020600020016000909190919091509081610a229190611af0565b5060006001600a80549050610a379190611bf1565b9050610a433382610d81565b6001600b83604051610a5591906118c1565b908152602001604051809103902060006101000a81548160ff0219169083151502179055505050565b60006020528060005260406000206000915054906101000a900460ff1681565b600b818051602081018201805184825260208301602085012081835280955050505050506000915054906101000a900460ff1681565b6000610adf82610da2565b610b1e576040517f08c379a0000000000000000000000000000000000000000000000000000000008152600401610b1590611c71565b60405180910390fd5b6000610b298361059d565b90508073ffffffffffffffffffffffffffffffffffffffff168473ffffffffffffffffffffffffffffffffffffffff161491505092915050565b610b6c81610da2565b610bab576040517f08c379a0000000000000000000000000000000000000000000000000000000008152600401610ba290611c71565b60405180910390fd5b8273ffffffffffffffffffffffffffffffffffffffff16610bcb8261059d565b73ffffffffffffffffffffffffffffffffffffffff1614610c21576040517f08c379a0000000000000000000000000000000000000000000000000000000008152600401610c1890611cdd565b60405180910390fd5b6001600460008573ffffffffffffffffffffffffffffffffffffffff1673ffffffffffffffffffffffffffffffffffffffff1681526020019081526020016000206000828254610c719190611bf1565b925050819055506001600460008473ffffffffffffffffffffffffffffffffffffffff1673ffffffffffffffffffffffffffffffffffffffff1681526020019081526020016000206000828254610cc89190611cfd565b92505081905550816003600083815260200190815260200160002060006101000a81548173ffffffffffffffffffffffffffffffffffffffff021916908373ffffffffffffffffffffffffffffffffffffffff160217905550808273ffffffffffffffffffffffffffffffffffffffff168473ffffffffffffffffffffffffffffffffffffffff167fbeabacc8ffedac16e9a60acdb2ca743d80c2ebb44977a93fa8e483c74d2b35a860405160405180910390a4505050565b610d8b8282610e14565b610d9481610fd3565b610d9e828261101c565b5050565b6000806003600084815260200190815260200160002060009054906101000a900473ffffffffffffffffffffffffffffffffffffffff169050600073ffffffffffffffffffffffffffffffffffffffff168173ffffffffffffffffffffffffffffffffffffffff161415915050919050565b600073ffffffffffffffffffffffffffffffffffffffff168273ffffffffffffffffffffffffffffffffffffffff1603610e83576040517f08c379a0000000000000000000000000000000000000000000000000000000008152600401610e7a90611da3565b60405180910390fd5b610e8c81610da2565b15610ecc576040517f08c379a0000000000000000000000000000000000000000000000000000000008152600401610ec390611e0f565b60405180910390fd5b816003600083815260200190815260200160002060006101000a81548173ffffffffffffffffffffffffffffffffffffffff021916908373ffffffffffffffffffffffffffffffffffffffff160217905550600460008373ffffffffffffffffffffffffffffffffffffffff1673ffffffffffffffffffffffffffffffffffffffff1681526020019081526020016000206000815480929190610f6e90611e2f565b9190505550808273ffffffffffffffffffffffffffffffffffffffff16600073ffffffffffffffffffffffffffffffffffffffff167fbeabacc8ffedac16e9a60acdb2ca743d80c2ebb44977a93fa8e483c74d2b35a860405160405180910390a45050565b6006805490506007600083815260200190815260200160002081905550600681908060018154018082558091505060019003906000526020600020016000909190919091505550565b600860008373ffffffffffffffffffffffffffffffffffffffff1673ffffffffffffffffffffffffffffffffffffffff168152602001908152602001600020819080600181540180825580915050600190039060005260206000200160009091909190915055600860008373ffffffffffffffffffffffffffffffffffffffff1673ffffffffffffffffffffffffffffffffffffffff1681526020019081526020016000208054905060096000838152602001908152602001600020819055505050565b6000604051905090565b600080fd5b600080fd5b60007fffffffff0000000000000000000000000000000000000000000000000000000082169050919050565b611129816110f4565b811461113457600080fd5b50565b60008135905061114681611120565b92915050565b600060208284031215611162576111616110ea565b5b600061117084828501611137565b91505092915050565b60008115159050919050565b61118e81611179565b82525050565b60006020820190506111a96000830184611185565b92915050565b600081519050919050565b600082825260208201905092915050565b60005b838110156111e95780820151818401526020810190506111ce565b60008484015250505050565b6000601f19601f8301169050919050565b6000611211826111af565b61121b81856111ba565b935061122b8185602086016111cb565b611234816111f5565b840191505092915050565b600060208201905081810360008301526112598184611206565b905092915050565b6000819050919050565b61127481611261565b82525050565b600060208201905061128f600083018461126b565b92915050565b600073ffffffffffffffffffffffffffffffffffffffff82169050919050565b60006112c082611295565b9050919050565b6112d0816112b5565b81146112db57600080fd5b50565b6000813590506112ed816112c7565b92915050565b6112fc81611261565b811461130757600080fd5b50565b600081359050611319816112f3565b92915050565b600080600060608486031215611338576113376110ea565b5b6000611346868287016112de565b9350506020611357868287016112de565b92505060406113688682870161130a565b9150509250925092565b60008060408385031215611389576113886110ea565b5b6000611397858286016112de565b92505060206113a88582860161130a565b9150509250929050565b6000602082840312156113c8576113c76110ea565b5b60006113d68482850161130a565b91505092915050565b6113e8816112b5565b82525050565b600060208201905061140360008301846113df565b92915050565b60006020828403121561141f5761141e6110ea565b5b600061142d848285016112de565b91505092915050565b600080fd5b600080fd5b7f4e487b7100000000000000000000000000000000000000000000000000000000600052604160045260246000fd5b611478826111f5565b810181811067ffffffffffffffff8211171561149757611496611440565b5b80604052505050565b60006114aa6110e0565b90506114b6828261146f565b919050565b600067ffffffffffffffff8211156114d6576114d5611440565b5b6114df826111f5565b9050602081019050919050565b82818337600083830152505050565b600061150e611509846114bb565b6114a0565b90508281526020810184848401111561152a5761152961143b565b5b6115358482856114ec565b509392505050565b600082601f83011261155257611551611436565b5b81356115628482602086016114fb565b91505092915050565b600060208284031215611581576115806110ea565b5b600082013567ffffffffffffffff81111561159f5761159e6110ef565b5b6115ab8482850161153d565b91505092915050565b7f4e487b7100000000000000000000000000000000000000000000000000000000600052602260045260246000fd5b600060028204905060018216806115fb57607f821691505b60208210810361160e5761160d6115b4565b5b50919050565b7f53656e646572206973206e6f7420617070726f766564206f72206f776e657200600082015250565b600061164a601f836111ba565b915061165582611614565b602082019050919050565b600060208201905081810360008301526116798161163d565b9050919050565b7f696e646578206f7574206f662072616e67650000000000000000000000000000600082015250565b60006116b66012836111ba565b91506116c182611680565b602082019050919050565b600060208201905081810360008301526116e5816116a9565b9050919050565b7f4e487b7100000000000000000000000000000000000000000000000000000000600052603260045260246000fd5b7f696e646578206f7574206f6620626f756e647300000000000000000000000000600082015250565b60006117516013836111ba565b915061175c8261171b565b602082019050919050565b6000602082019050818103600083015261178081611744565b9050919050565b7f4f776e657220646f6573206e6f74206861766520616e7920746f6b656e730000600082015250565b60006117bd601e836111ba565b91506117c882611787565b602082019050919050565b600060208201905081810360008301526117ec816117b0565b9050919050565b7f4f6e6c7920746865206f776e65722063616e20617070726f766520746869732060008201527f746f6b656e000000000000000000000000000000000000000000000000000000602082015250565b600061184f6025836111ba565b915061185a826117f3565b604082019050919050565b6000602082019050818103600083015261187e81611842565b9050919050565b600081905092915050565b600061189b826111af565b6118a58185611885565b93506118b58185602086016111cb565b80840191505092915050565b60006118cd8284611890565b915081905092915050565b7f4b727970746f426972647a20616c726561647920657869737473000000000000600082015250565b600061190e601a836111ba565b9150611919826118d8565b602082019050919050565b6000602082019050818103600083015261193d81611901565b9050919050565b60008190508160005260206000209050919050565b60006020601f8301049050919050565b600082821b905092915050565b6000600883026119a67fffffffffffffffffffffffffffffffffffffffffffffffffffffffffffffffff82611969565b6119b08683611969565b95508019841693508086168417925050509392505050565b6000819050919050565b60006119ed6119e86119e384611261565b6119c8565b611261565b9050919050565b6000819050919050565b611a07836119d2565b611a1b611a13826119f4565b848454611976565b825550505050565b600090565b611a30611a23565b611a3b8184846119fe565b505050565b5b81811015611a5f57611a54600082611a28565b600181019050611a41565b5050565b601f821115611aa457611a7581611944565b611a7e84611959565b81016020851015611a8d578190505b611aa1611a9985611959565b830182611a40565b50505b505050565b600082821c905092915050565b6000611ac760001984600802611aa9565b1980831691505092915050565b6000611ae08383611ab6565b9150826002028217905092915050565b611af9826111af565b67ffffffffffffffff811115611b1257611b11611440565b5b611b1c82546115e3565b611b27828285611a63565b600060209050601f831160018114611b5a5760008415611b48578287015190505b611b528582611ad4565b865550611bba565b601f198416611b6886611944565b60005b82811015611b9057848901518255600182019150602085019450602081019050611b6b565b86831015611bad5784890151611ba9601f891682611ab6565b8355505b6001600288020188555050505b505050505050565b7f4e487b7100000000000000000000000000000000000000000000000000000000600052601160045260246000fd5b6000611bfc82611261565b9150611c0783611261565b9250828203905081811115611c1f57611c1e611bc2565b5b92915050565b7f746f6b656e496420646f6573206e6f7420657869737400000000000000000000600082015250565b6000611c5b6016836111ba565b9150611c6682611c25565b602082019050919050565b60006020820190508181036000830152611c8a81611c4e565b9050919050565b7f53656e64657220646f6573206e6f74206f776e207468697320746f6b656e0000600082015250565b6000611cc7601e836111ba565b9150611cd282611c91565b602082019050919050565b60006020820190508181036000830152611cf681611cba565b9050919050565b6000611d0882611261565b9150611d1383611261565b9250828201905080821115611d2b57611d2a611bc2565b5b92915050565b7f746f2061646472657373206973206e6f7420616c6c6f77656420746f2062652060008201527f3078300000000000000000000000000000000000000000000000000000000000602082015250565b6000611d8d6023836111ba565b9150611d9882611d31565b604082019050919050565b60006020820190508181036000830152611dbc81611d80565b9050919050565b7f746f6b656e496420616c72656164792065786973747300000000000000000000600082015250565b6000611df96016836111ba565b9150611e0482611dc3565b602082019050919050565b60006020820190508181036000830152611e2881611dec565b9050919050565b6000611e3a82611261565b91507fffffffffffffffffffffffffffffffffffffffffffffffffffffffffffffffff8203611e6c57611e6b611bc2565b5b60018201905091905056fea264697066735822122070248df5117e2163800fa4db395e34d25a8ffa18b8b6da98c07940051a71b16b64736f6c63430008100033",
  "immutableReferences": {},
  "source": "// SPDX-License-Identifier: MIT\r\npragma solidity ^0.8.0;\r\nimport './ERC721Connector.sol';\r\n\r\n\r\ncontract KryptoBirdz is ERC721Connector {\r\n    string[] public kryptoBirdz;\r\n    mapping(string => bool) public kryptoBirdzExist;\r\n    function mint(string memory _kryptoBirdz) public {\r\n        require(!kryptoBirdzExist[_kryptoBirdz], \"KryptoBirdz already exists\");\r\n        kryptoBirdz.push(_kryptoBirdz);\r\n        uint id= kryptoBirdz.length - 1;\r\n        _mint(msg.sender, id);\r\n        kryptoBirdzExist[_kryptoBirdz] = true;\r\n    }\r\n    constructor () ERC721Connector('KryptoBirdz','KBIRDZ')  {\r\n       \r\n    }\r\n}",
  "sourcePath": "D:\\BlockChain\\nft-marketplace-starter-kit\\contracts\\libraries\\KryptoBirdz.sol",
  "compiler": {
    "name": "solc",
    "version": "0.8.16+commit.07a7930e.Emscripten.clang"
  },
  "schemaVersion": "3.4.9",
  "updatedAt": "2022-08-18T13:30:09.947Z",
  "devdoc": {
    "kind": "dev",
    "methods": {},
    "version": 1
  },
  "userdoc": {
    "kind": "user",
    "methods": {},
    "version": 1
  }
}